{
  "contractName": "LandRegistry",
  "abi": [
    {
      "anonymous": false,
      "inputs": [
        {
          "indexed": true,
          "internalType": "uint256",
          "name": "landId",
          "type": "uint256"
        },
        {
          "indexed": true,
          "internalType": "address",
          "name": "buyer",
          "type": "address"
        },
        {
          "indexed": true,
          "internalType": "address",
          "name": "seller",
          "type": "address"
        },
        {
          "indexed": false,
          "internalType": "uint256",
          "name": "price",
          "type": "uint256"
        },
        {
          "indexed": false,
          "internalType": "uint256",
          "name": "timestamp",
          "type": "uint256"
        }
      ],
      "name": "LandPurchased",
      "type": "event"
    },
    {
      "inputs": [
        {
          "internalType": "uint256",
          "name": "",
          "type": "uint256"
        }
      ],
      "name": "ownerOf",
      "outputs": [
        {
          "internalType": "address",
          "name": "",
          "type": "address"
        }
      ],
      "stateMutability": "view",
      "type": "function",
      "constant": true
    },
    {
      "inputs": [
        {
          "internalType": "uint256",
          "name": "",
          "type": "uint256"
        }
      ],
      "name": "transactions",
      "outputs": [
        {
          "internalType": "address",
          "name": "buyer",
          "type": "address"
        },
        {
          "internalType": "address",
          "name": "seller",
          "type": "address"
        },
        {
          "internalType": "uint256",
          "name": "price",
          "type": "uint256"
        },
        {
          "internalType": "uint256",
          "name": "timestamp",
          "type": "uint256"
        }
      ],
      "stateMutability": "view",
      "type": "function",
      "constant": true
    },
    {
      "inputs": [
        {
          "internalType": "uint256",
          "name": "landId",
          "type": "uint256"
        },
        {
          "internalType": "address",
          "name": "seller",
          "type": "address"
        }
      ],
      "name": "buyLand",
      "outputs": [],
      "stateMutability": "payable",
      "type": "function",
      "payable": true
    },
    {
      "inputs": [
        {
          "internalType": "uint256",
          "name": "landId",
          "type": "uint256"
        }
      ],
      "name": "getTransaction",
      "outputs": [
        {
          "internalType": "address",
          "name": "",
          "type": "address"
        },
        {
          "internalType": "address",
          "name": "",
          "type": "address"
        },
        {
          "internalType": "uint256",
          "name": "",
          "type": "uint256"
        },
        {
          "internalType": "uint256",
          "name": "",
          "type": "uint256"
        }
      ],
      "stateMutability": "view",
      "type": "function",
      "constant": true
    }
  ],
  "bytecode": "0x608060405234801561001057600080fd5b5061088b806100206000396000f3fe60806040526004361061003f5760003560e01c806333ea3dc8146100445780636352211e146100845780637ed11e62146100c15780639ace38c2146100dd575b600080fd5b34801561005057600080fd5b5061006b600480360381019061006691906105fa565b61011d565b60405161007b9493929190610677565b60405180910390f35b34801561009057600080fd5b506100ab60048036038101906100a691906105fa565b610228565b6040516100b891906106bc565b60405180910390f35b6100db60048036038101906100d69190610703565b61025b565b005b3480156100e957600080fd5b5061010460048036038101906100ff91906105fa565b61054f565b6040516101149493929190610677565b60405180910390f35b60008060008060008060008781526020019081526020016000206040518060800160405290816000820160009054906101000a900473ffffffffffffffffffffffffffffffffffffffff1673ffffffffffffffffffffffffffffffffffffffff1673ffffffffffffffffffffffffffffffffffffffff1681526020016001820160009054906101000a900473ffffffffffffffffffffffffffffffffffffffff1673ffffffffffffffffffffffffffffffffffffffff1673ffffffffffffffffffffffffffffffffffffffff16815260200160028201548152602001600382015481525050905080600001518160200151826040015183606001519450945094509450509193509193565b60016020528060005260406000206000915054906101000a900473ffffffffffffffffffffffffffffffffffffffff1681565b600073ffffffffffffffffffffffffffffffffffffffff166001600084815260200190815260200160002060009054906101000a900473ffffffffffffffffffffffffffffffffffffffff1673ffffffffffffffffffffffffffffffffffffffff16146102fd576040517f08c379a00000000000000000000000000000000000000000000000000000000081526004016102f4906107a0565b60405180910390fd5b600034905060008111610345576040517f08c379a000000000000000000000000000000000000000000000000000000000815260040161033c9061080c565b60405180910390fd5b8173ffffffffffffffffffffffffffffffffffffffff166108fc829081150290604051600060405180830381858888f1935050505015801561038b573d6000803e3d6000fd5b5060405180608001604052803373ffffffffffffffffffffffffffffffffffffffff1681526020018373ffffffffffffffffffffffffffffffffffffffff1681526020018281526020014281525060008085815260200190815260200160002060008201518160000160006101000a81548173ffffffffffffffffffffffffffffffffffffffff021916908373ffffffffffffffffffffffffffffffffffffffff16021790555060208201518160010160006101000a81548173ffffffffffffffffffffffffffffffffffffffff021916908373ffffffffffffffffffffffffffffffffffffffff1602179055506040820151816002015560608201518160030155905050336001600085815260200190815260200160002060006101000a81548173ffffffffffffffffffffffffffffffffffffffff021916908373ffffffffffffffffffffffffffffffffffffffff1602179055508173ffffffffffffffffffffffffffffffffffffffff163373ffffffffffffffffffffffffffffffffffffffff16847ff6308e905f599f921ec4f7195d66393d59a5ce5c10994471dcb584ba2beab1b0844260405161054292919061082c565b60405180910390a4505050565b60006020528060005260406000206000915090508060000160009054906101000a900473ffffffffffffffffffffffffffffffffffffffff16908060010160009054906101000a900473ffffffffffffffffffffffffffffffffffffffff16908060020154908060030154905084565b600080fd5b6000819050919050565b6105d7816105c4565b81146105e257600080fd5b50565b6000813590506105f4816105ce565b92915050565b6000602082840312156106105761060f6105bf565b5b600061061e848285016105e5565b91505092915050565b600073ffffffffffffffffffffffffffffffffffffffff82169050919050565b600061065282610627565b9050919050565b61066281610647565b82525050565b610671816105c4565b82525050565b600060808201905061068c6000830187610659565b6106996020830186610659565b6106a66040830185610668565b6106b36060830184610668565b95945050505050565b60006020820190506106d16000830184610659565b92915050565b6106e081610647565b81146106eb57600080fd5b50565b6000813590506106fd816106d7565b92915050565b6000806040838503121561071a576107196105bf565b5b6000610728858286016105e5565b9250506020610739858286016106ee565b9150509250929050565b600082825260208201905092915050565b7f4c616e6420616c726561647920736f6c64000000000000000000000000000000600082015250565b600061078a601183610743565b915061079582610754565b602082019050919050565b600060208201905081810360008301526107b98161077d565b9050919050565b7f5072696365206d7573742062652067726561746572207468616e203000000000600082015250565b60006107f6601c83610743565b9150610801826107c0565b602082019050919050565b60006020820190508181036000830152610825816107e9565b9050919050565b60006040820190506108416000830185610668565b61084e6020830184610668565b939250505056fea2646970667358221220c67f379f0dad1aff5d4f6f7f086f9363794af0a63aa73297b70a771f5b0d296d64736f6c634300080d0033",
  "immutableReferences": {},
  "source": "// SPDX-License-Identifier: MIT\r\npragma solidity ^0.8.13;\r\n\r\ncontract LandRegistry {\r\n    struct LandTransaction {\r\n        address buyer;\r\n        address seller;\r\n        uint256 price;\r\n        uint256 timestamp;\r\n    }\r\n\r\n    // Track land transactions by landId\r\n    mapping(uint256 => LandTransaction) public transactions;\r\n\r\n    // Track ownership\r\n    mapping(uint256 => address) public ownerOf;\r\n\r\n    // Event emitted on purchase\r\n    event LandPurchased(\r\n        uint256 indexed landId,\r\n        address indexed buyer,\r\n        address indexed seller,\r\n        uint256 price,\r\n        uint256 timestamp\r\n    );\r\n\r\n    // Function to buy land\r\n    function buyLand(uint256 landId, address seller) external payable {\r\n        require(ownerOf[landId] == address(0), \"Land already sold\");\r\n\r\n        uint256 price = msg.value;\r\n        require(price > 0, \"Price must be greater than 0\");\r\n\r\n        // Transfer ETH to seller\r\n        payable(seller).transfer(price);\r\n\r\n        // Save transaction\r\n        transactions[landId] = LandTransaction({\r\n            buyer: msg.sender,\r\n            seller: seller,\r\n            price: price,\r\n            timestamp: block.timestamp\r\n        });\r\n\r\n        // Assign ownership\r\n        ownerOf[landId] = msg.sender;\r\n\r\n        emit LandPurchased(landId, msg.sender, seller, price, block.timestamp);\r\n    }\r\n\r\n    // Optional: View transaction\r\n    function getTransaction(uint256 landId)\r\n        public\r\n        view\r\n        returns (address, address, uint256, uint256)\r\n    {\r\n        LandTransaction memory txData = transactions[landId];\r\n        return (txData.buyer, txData.seller, txData.price, txData.timestamp);\r\n    }\r\n}\r\n",
  "sourcePath": "C:\\Users\\VIVEK\\Desktop\\BE_Project\\secure-land-registry\\blockchain\\contracts\\LandRegistry.sol",
  "compiler": {
    "name": "solc",
    "version": "0.8.13+commit.abaa5c0e.Emscripten.clang"
  },
  "schemaVersion": "3.4.16",
  "updatedAt": "2025-06-07T10:14:09.011Z",
  "networkType": "ethereum",
  "devdoc": {
    "kind": "dev",
    "methods": {},
    "version": 1
  },
  "userdoc": {
    "kind": "user",
    "methods": {},
    "version": 1
  }
}