{
  "contractName": "LandRegistry",
  "abi": [
    {
      "anonymous": false,
      "inputs": [
        {
          "indexed": true,
          "internalType": "uint256",
          "name": "transactionId",
          "type": "uint256"
        },
        {
          "indexed": true,
          "internalType": "address",
          "name": "buyer",
          "type": "address"
        },
        {
          "indexed": true,
          "internalType": "address",
          "name": "seller",
          "type": "address"
        },
        {
          "indexed": false,
          "internalType": "uint256",
          "name": "price",
          "type": "uint256"
        },
        {
          "indexed": false,
          "internalType": "uint256",
          "name": "timestamp",
          "type": "uint256"
        }
      ],
      "name": "TransactionCompleted",
      "type": "event"
    },
    {
      "inputs": [
        {
          "internalType": "uint256",
          "name": "",
          "type": "uint256"
        }
      ],
      "name": "transactions",
      "outputs": [
        {
          "internalType": "address",
          "name": "buyer",
          "type": "address"
        },
        {
          "internalType": "address",
          "name": "seller",
          "type": "address"
        },
        {
          "internalType": "uint256",
          "name": "price",
          "type": "uint256"
        },
        {
          "internalType": "uint256",
          "name": "timestamp",
          "type": "uint256"
        }
      ],
      "stateMutability": "view",
      "type": "function",
      "constant": true
    },
    {
      "inputs": [
        {
          "internalType": "uint256",
          "name": "transactionId",
          "type": "uint256"
        },
        {
          "internalType": "address",
          "name": "buyer",
          "type": "address"
        },
        {
          "internalType": "address",
          "name": "seller",
          "type": "address"
        },
        {
          "internalType": "uint256",
          "name": "price",
          "type": "uint256"
        }
      ],
      "name": "completeTransaction",
      "outputs": [],
      "stateMutability": "payable",
      "type": "function",
      "payable": true
    },
    {
      "inputs": [
        {
          "internalType": "uint256",
          "name": "transactionId",
          "type": "uint256"
        }
      ],
      "name": "getTransaction",
      "outputs": [
        {
          "internalType": "address",
          "name": "buyer",
          "type": "address"
        },
        {
          "internalType": "address",
          "name": "seller",
          "type": "address"
        },
        {
          "internalType": "uint256",
          "name": "price",
          "type": "uint256"
        },
        {
          "internalType": "uint256",
          "name": "timestamp",
          "type": "uint256"
        }
      ],
      "stateMutability": "view",
      "type": "function",
      "constant": true
    }
  ],
  "bytecode": "0x608060405234801561001057600080fd5b506107b7806100206000396000f3fe6080604052600436106100345760003560e01c806333ea3dc81461003957806373cb3021146100795780639ace38c214610095575b600080fd5b34801561004557600080fd5b50610060600480360381019061005b91906104f4565b6100d5565b6040516100709493929190610571565b60405180910390f35b610093600480360381019061008e91906105e2565b6101e0565b005b3480156100a157600080fd5b506100bc60048036038101906100b791906104f4565b610449565b6040516100cc9493929190610571565b60405180910390f35b60008060008060008060008781526020019081526020016000206040518060800160405290816000820160009054906101000a900473ffffffffffffffffffffffffffffffffffffffff1673ffffffffffffffffffffffffffffffffffffffff1673ffffffffffffffffffffffffffffffffffffffff1681526020016001820160009054906101000a900473ffffffffffffffffffffffffffffffffffffffff1673ffffffffffffffffffffffffffffffffffffffff1673ffffffffffffffffffffffffffffffffffffffff16815260200160028201548152602001600382015481525050905080600001518160200151826040015183606001519450945094509450509193509193565b8273ffffffffffffffffffffffffffffffffffffffff163373ffffffffffffffffffffffffffffffffffffffff161461024e576040517f08c379a0000000000000000000000000000000000000000000000000000000008152600401610245906106cc565b60405180910390fd5b803414610290576040517f08c379a000000000000000000000000000000000000000000000000000000000815260040161028790610738565b60405180910390fd5b8173ffffffffffffffffffffffffffffffffffffffff166108fc349081150290604051600060405180830381858888f193505050501580156102d6573d6000803e3d6000fd5b5060405180608001604052808473ffffffffffffffffffffffffffffffffffffffff1681526020018373ffffffffffffffffffffffffffffffffffffffff1681526020013481526020014281525060008086815260200190815260200160002060008201518160000160006101000a81548173ffffffffffffffffffffffffffffffffffffffff021916908373ffffffffffffffffffffffffffffffffffffffff16021790555060208201518160010160006101000a81548173ffffffffffffffffffffffffffffffffffffffff021916908373ffffffffffffffffffffffffffffffffffffffff16021790555060408201518160020155606082015181600301559050508173ffffffffffffffffffffffffffffffffffffffff168373ffffffffffffffffffffffffffffffffffffffff16857f2f8326a31f93f4fb05c6968c90d0819420ea484c8a4b6f83b476a1b8f3716a13344260405161043b929190610758565b60405180910390a450505050565b60006020528060005260406000206000915090508060000160009054906101000a900473ffffffffffffffffffffffffffffffffffffffff16908060010160009054906101000a900473ffffffffffffffffffffffffffffffffffffffff16908060020154908060030154905084565b600080fd5b6000819050919050565b6104d1816104be565b81146104dc57600080fd5b50565b6000813590506104ee816104c8565b92915050565b60006020828403121561050a576105096104b9565b5b6000610518848285016104df565b91505092915050565b600073ffffffffffffffffffffffffffffffffffffffff82169050919050565b600061054c82610521565b9050919050565b61055c81610541565b82525050565b61056b816104be565b82525050565b60006080820190506105866000830187610553565b6105936020830186610553565b6105a06040830185610562565b6105ad6060830184610562565b95945050505050565b6105bf81610541565b81146105ca57600080fd5b50565b6000813590506105dc816105b6565b92915050565b600080600080608085870312156105fc576105fb6104b9565b5b600061060a878288016104df565b945050602061061b878288016105cd565b935050604061062c878288016105cd565b925050606061063d878288016104df565b91505092959194509250565b600082825260208201905092915050565b7f4f6e6c792062757965722063616e20636f6d706c657465207472616e7361637460008201527f696f6e0000000000000000000000000000000000000000000000000000000000602082015250565b60006106b6602383610649565b91506106c18261065a565b604082019050919050565b600060208201905081810360008301526106e5816106a9565b9050919050565b7f496e636f7272656374207061796d656e7420616d6f756e740000000000000000600082015250565b6000610722601883610649565b915061072d826106ec565b602082019050919050565b6000602082019050818103600083015261075181610715565b9050919050565b600060408201905061076d6000830185610562565b61077a6020830184610562565b939250505056fea2646970667358221220ae682b71d22036ccf3d6d278c207c914570898b5cc5f9a82701a7a41b224139e64736f6c634300080d0033",
  "immutableReferences": {},
  "source": "// SPDX-License-Identifier: MIT\r\npragma solidity ^0.8.13;\r\n\r\ncontract LandRegistry {\r\n    struct LandTransaction {\r\n        address buyer;\r\n        address seller;\r\n        uint256 price;\r\n        uint256 timestamp;\r\n    }\r\n\r\n    mapping(uint256 => LandTransaction) public transactions;\r\n\r\n    event TransactionCompleted(\r\n        uint256 indexed transactionId,\r\n        address indexed buyer,\r\n        address indexed seller,\r\n        uint256 price,\r\n        uint256 timestamp\r\n    );\r\n\r\n    function completeTransaction(\r\n        uint256 transactionId,\r\n        address buyer,\r\n        address seller,\r\n        uint256 price\r\n    ) external payable {\r\n        require(msg.sender == buyer, \"Only buyer can complete transaction\");\r\n        require(msg.value == price, \"Incorrect payment amount\");\r\n\r\n        payable(seller).transfer(msg.value);\r\n\r\n        transactions[transactionId] = LandTransaction({\r\n            buyer: buyer,\r\n            seller: seller,\r\n            price: msg.value,\r\n            timestamp: block.timestamp\r\n        });\r\n\r\n        emit TransactionCompleted(\r\n            transactionId,\r\n            buyer,\r\n            seller,\r\n            msg.value,\r\n            block.timestamp\r\n        );\r\n    }\r\n\r\n    function getTransaction(\r\n        uint256 transactionId\r\n    )\r\n        public\r\n        view\r\n        returns (\r\n            address buyer,\r\n            address seller,\r\n            uint256 price,\r\n            uint256 timestamp\r\n        )\r\n    {\r\n        LandTransaction memory txData = transactions[transactionId];\r\n        return (txData.buyer, txData.seller, txData.price, txData.timestamp);\r\n    }\r\n}\r\n",
  "sourcePath": "C:\\Users\\VIVEK\\Desktop\\BE_Project\\secure-land-registry\\blockchain\\contracts\\LandRegistry.sol",
  "compiler": {
    "name": "solc",
    "version": "0.8.13+commit.abaa5c0e.Emscripten.clang"
  },
  "schemaVersion": "3.4.16",
  "updatedAt": "2025-06-05T06:36:42.675Z",
  "networkType": "ethereum",
  "devdoc": {
    "kind": "dev",
    "methods": {},
    "version": 1
  },
  "userdoc": {
    "kind": "user",
    "methods": {},
    "version": 1
  }
}